S019000044796E616D6963476174744578616D706C652E733337BA
S21400400000000120117D00000D7D00000D7D0000E8
S214004010BD5C00000D7D00000D7D00000D7D0000E4
S2140040200D7D00000D7D00000D7D00000D7D000063
S2140040300D7D00000D7D00000D7D00000D7D000053
S2140040400D7D00000D7D00000D7D00000D7D000043
S2140040500D7D00000D7D00000D7D00000D7D000033
S2140040600D7D00000D7D00000D7D00000D7D000023
S2140040700D7D00000D7D00000D7D00000D7D000013
S2140040800D7D00000D7D00000D7D00000D7D000003
S2140040900D7D00000D7D00000D7D00000D7D0000F3
S2140040A00D7D00000D7D00000D7D00000D7D0000E3
S2140040B00D7D00000D7D00000D7D00000DD200007E
S2140040C0C1D10000BDD1000085CA000009D20000A1
S2140040D0C5D10000CDD10000C9D10000A9B70000AD
S2140040E04DD200000D7D00000D7D00000D7D00000E
S2140040F00D7D00000D7D00000D7D00000D7D000093
S2140041000D7D00000D7D00000D7D00000D7D000082
S2140041100D7D00000D7D00000D7D00000D7D000072
S2140041200D7D00000D7D00000D7D00000D7D000062
S2140041300D7D000010B5054C237833B9044B13B140
S214004140044800E000BF0123237010BD20010020BA
S21400415000000000AC04010008B5034B1BB1034986
S214004160034800E000BF08BD000000002401002056
S214004170AC040100A3F5803A704700BF174B002B34
S21400418008BF134B9D46FFF7F5FF00218B460F46F1
S2140041901348144A121A09F05EFE0E4B002B00D08C
S2140041A098470D4B002B00D09847002000210400B4
S2140041B00D000D48002802D00C4800E000BF09F0B2
S2140041C019FE2000290002F07FFF09F0FFFD00BF66
S2140041D000000800000000000000000000000120B1
S2140041E020010020A81A00200000000000000000A7
S2140041F0174B9868C0F304400C2822D8DFE800F07C
S214004200092121212121071719211B1D1F001148F3
S21400421070479B6803F04073B3F1807F13D0B3F10F
S214004220007F12D00C4A002B08BF104670470B4880
S21400423070470B4870470B4870470B4870470B4851
S2140042407047002070470A4870470A48704700BF0A
S2140042500040014A405DC60000093D000024F4000D
S214004260C0EA210180BA8C010048E801005A6202C7
S21400427080841E0040420F00BFF34F8F0549064B57
S214004280CA6802F4E0621343CB60BFF34F8F00BFEF
S214004290FDE700BF00ED00E00400FA05024610B599
S2140042A000B3114B1968888890421BD39888002465
S2140042B0904281BF01200968988099609868998823
S2140042C028B904B198604FF6FF729A8009E08A42D6
S2140042D004D001310124006889B2F1E70CB19A805C
S2140042E0986010BD0020FCE74807002000239B6A6A
S2140042F0B3F5804F03D21968064A914203D00023D3
S214004300037083607047012202709A689B6942605E
S214004310F7E700BF07B0CD5E10B50C4630B90448CD
S214004320FFF7E4FF042304302060A380002010BDC4
S214004330FC01002000239B6AB3F5804F05D21B6B5F
S214004340B3F5804F01D29B6B184740F201107047BF
S21400435000239B6AB3F5804F05D21B6BB3F5804FE5
S21400436001D2DB6B184740F201107047024BD86849
S21400437080B28002704700BF0080E00F7FB5034622
S2140043806D460E4A02F110062C4610685168083237
S21400439003C4B2422546F7D15A1E0DF10F010F3362
S2140043A011F8010912F8014F844204D19A42F7D15C
S2140043B0012004B070BD0020FBE700BF08E000004D
S2140043C070B5154E306810BB144B154CE41A154BDF
S2140043D01C4424F4FF5424F01F04FFF7C7FF844254
S2140043E014D2656BA5B1FFF7C1FF854210D2FFF767
S2140043F0BDFF05F1400383420AD82846FFF7BEFFFB
S21400440030B1EB6933F0080302D03460306870BD19
S21400441004F50054E1E700BFA001002010000020D2
S2140044201C010020F7240100034B044A99791175FA
S21400443000221A60704700BFE40D0020E00600204E
S2140044400022134630B58BB0D910415C03F0070448
S2140044502141CC0742BF0AA9891801F8283C03F17C
S214004460010348BF0132252BEED100230C4CD91096
S214004470415C03F007052941C9075FBFB3FBF2F1B2
S21400448002FB11310AAD49194CBFD9B211F8281CEC
S2140044900133252B04F8011BE9D10BB030BD00BF5A
S2140044A00A07002010B5034CA01DFFF7C9FF002324
S2140044B0236010BDE40D002010B540F2E244074A28
S2140044C06043136800F5807004FB0131536801EB0C
S2140044D0500118441160506010BD00BFE006002077
S2140044E00A20D0B50B4CE38C584309F0D3F90646A6
S2140044F0A08C0F4609F0CEF90022074B09F034FADB
S21400450002460B463046394609F058FB09F03EFC99
S2140045102083D0BDE00600200000F43F10B5094C13
S214004520B4F80710A079FFF7C7FFA368B4F80D101A
S214004530054AC3F30F239384D184FFF7D1FF0023EA
S214004540236010BDE40D0020E0060020837DDB071D
S21400455001D5808A7047D0E901239B1A44BF828A1E
S2140045609B1898B270474369416CDA1D1439B2FB48
S214004570F1F28069013203EBC202043000EB420024
S214004580DA1CB2FBF1F203EBC2030333B3FBF1F325
S214004590023301FB03007047F7B507460E460025B9
S2140045A07C6CA819644280EA06031C4003D02C46A3
S2140045B0204603B0F0BDFB6B01225B6901A998475A
S2140045C0019B0133F4D10435EAE7000003460846B0
S2140045D0EFF3108172B6DB6B014ADB681160184797
S2140045E0DC0D002000234FF0FF3230B544689C42BB
S2140045F002D10023037230BD016801EBC30541F808
S21400460033206A600133F2E72DE9F0434668002E56
S21400461045D0056898464FF0000CA946AE4655F8BA
S2140046203C400CF1010CC4F31307013401D0B9422D
S21400463017D0B4450EF1080EF1D12F46002403E042
S214004640B44207F1080712D055F83430013401336C
S214004650F6D1C1F3130141EA0851C7E90012BDE8DB
S214004660F08341EA0851CEE90012BDE8F083B8F1C4
S214004670030F14D0002303E0B34209F108090ED05B
S21400468055F833400133C4F30754032CF4D1C1F377
S214004690130343EA0853C9E90032BDE8F083012357
S2140046A00372BDE8F08300BF41F67132034B002071
S2140046B0DA63012203F50053DA6070470000034016
S2140046C041F671320121044BDA6303F50052D160E2
S2140046D00022DA63704700BF00000340704703689B
S2140046E013F07E0F03D1406820F07C40704713F033
S2140046F078001CBF03F07F03D81F704737B5054608
S21400470001F10C04436901A9012220469847BDF82F
S21400471004300122009369462046AB69984703B0EF
S21400472030BD202A0B681EBF4FF0FF3191408B43EF
S214004730590801F055315B1A03F033319B0803F03A
S21400474033330B44017803EB13130A444FF0013163
S21400475003F00F334B43A2EB13630370704737B578
S214004760044600251B22011D0DF107008DF8075099
S214004770FFF7D7FF63689DF80720B2EBD36F03D12E
S21400478023F0784003B030BD1B2204F108018DF8F9
S2140047900750FFF7C6FFA0689DF80730B3EBD06F51
S2140047A00ABFC0434FF0FF3020F07840EAE74BF2F4
S2140047B09A22036810B5B2EB134F044613D19BB28E
S2140047C0012B13D1FFF7CBFF01300CD04FF6FF7251
S2140047D0E068B2EB104F4FEA104309D180B2C01A1E
S2140047E018BF012010BD2368013303D00420F9E769
S2140047F00220F7E70320F5E70C4B10B50C4CE41A43
S2140048000C4B1C4424F4FF5424F01F04FFF7AEFDA9
S214004810A04202D80024204610BD2046FFF7C7FF5E
S2140048200128F8D904F50054F0E700BF1000002076
S2140048301C010020F7240100F0B50546002687B0CD
S214004840EC69013CB44203D80C46204607B0F0BDE4
S21400485001B14C1E6F6C2868EB6B05225B6901A9E1
S21400486007FB0400984701A8FFF7A1FF0128ECD931
S21400487021460136E4E7F0B504680646091B446C99
S2140048800025B1FBF4F487B0F36930685A1E9542F0
S214004890776C06D3716C306801FB0400143007B0E7
S2140048A0F0BD0134B4FBF3F103FB1144F36B0522B6
S2140048B05B6901A907FB0400984701A8FFF777FF8B
S2140048C00128E7D90135DFE72DE9F04F1446074602
S2140048D00D469946C36B89B001225B6905A96068DD
S2140048E09847FB6B01225B69284604A99847059BFD
S2140048F05A1C06D10020A360A075607509B0BDE8FB
S214004900F08F01224FF0000CA275227E049904EB72
S214004910C202D561A2F820C06668C1F3D310AE42C9
S21400492001F07F020BD14FF0FF3320602275A360A9
S214004930237D043B022B25D80020A075DEE72668E1
S2140049408642207D18BF84F816C090421CBF002007
S214004950A07503F07F0001288CBF00200120012AEB
S2140049608CBF0022012290421CBF0022A27511F0CB
S2140049707E0F03F07E0300F0E980002BD8D10023E1
S214004980A375D5E711F07E0F0FD1FB6B02222846E8
S2140049905B6906A9984706A8FFF7A1FE237D032BAF
S2140049A03BD8DFE803F03535040904A8F4E7CC214A
S2140049B0227E04EBC2021184664AD35C049E129ADD
S2140049C016F07E0B18BF00261370237E08BFC6F3B2
S2140049D0C16604EBC3035FFA86FAB3F8208083F857
S2140049E022A0BBF1000F00F08C8000231B2204A93C
S2140049F006A88DF81830FFF794FE9DF81830049A34
S214004A00B3EBD26F0CBF012300230422637594E03E
S214004A10227E04EBC2021084CEE7227E062B04EB35
S214004A20C2021084C8D90123C8E794F816B0BBF1B7
S214004A30000F00F08880B8F1000F09D1DEB1012325
S214004A40617EE37500293CD19E4218D1667614E05B
S214004A507B6CA818594285EA000C1CEA010F1CBFA3
S214004A600021A175591E01405B1A984569D8A37D9F
S214004A70002BE3D167E0E37DA3B94FF0000B28F0ED
S214004A8003002844104418F0030F7B6C18BF043052
S214004A905B4285EA0002134203D029463846FFF7F8
S214004AA0EAFEA060A27D12B1236943442361237EFF
S214004AB0012B0DD801332376B9F1000F0BD1A07D61
S214004AC01CE7012EEED0BAF1030F08BFA376D4E799
S214004AD00023A375F3E7002AF1D0E37D002BEED088
S214004AE0BBF1000FEBD1032EE9D0A1684B1CE6D03A
S214004AF0129B2246009338460123FFF7E5FEA07579
S214004B00DDE7FB6B02225B6906A928469847202250
S214004B1006A90DF10F008DF80FB0FFF702FE1A225E
S214004B2007A9FFF7FEFD9DF80F30079AB3EB926FCB
S214004B300CBF0123002308226375637D002B7FF4DE
S214004B4074AF0023A3754FF0000BABE7002B3FF4C8
S214004B50EFAE14E7D0E0000013B50C46002100933A
S214004B602176134661682246FFF7AEFE18B1E37D54
S214004B7003B1A07EA075A07D02B010BD70B5002563
S214004B80044686B00562E369AB4202D8206A06B0E6
S214004B9070BD666C2068E36B05225B6906FB05004A
S214004BA001A9984701A8FFF702FE012898BF236ACB
S214004BB005F101059CBF01332362E4E7F0B500254B
S214004BC004462E4687B0E369B34202D8284607B0AB
S214004BD0F0BD636C2768052203FB0677E36B01A92B
S214004BE05B693846984701A8FFF7E1FD012809D818
S214004BF0204607F11401FFF7CFFC636C143B834299
S214004C0008BF01350136DEE7F0B504460D46466CB2
S214004C10E36B006887B005225B6901A906FB050007
S214004C20984701A8FFF7C3FD012804D801A8FFF79D
S214004C3096FD07B0F0BD29462046FFF7FDFD064667
S214004C40676C2068E36B05225B6901A907FB060019
S214004C50984701A8FFF783FD431CEAD0B54238BF4A
S214004C600130E6E7074B9A6CDB6C110A0270120CF7
S214004C7082701A0AC2701A0C1B0E417002714371C0
S214004C80704700BF0080E00F104B10B5D3F82031FE
S214004C90044603F00703013B032B14D8DFE803F0B8
S214004CA002090C1004230A4804B1206001B10B70FD
S214004CB010BD03230748F7E7FFF79AFA0523F3E743
S214004CC002230548F0E700231846EDE70080004081
S214004CD0C0EA210100F04902002D310141F671338E
S214004CE0012270B5194D0446EE69EB63184B00219E
S214004CF0DA600223686121202B6106F4803609F011
S214004D007BF910B9212009F077F90122114BDA60FE
S214004D100EB10023EB63431C14D0A8B90E4B9B685E
S214004D200A3303F01F020123934023F003032344B6
S214004D309C4201D1002070BD54F8042B0132F7D0FC
S214004D400648F8E70648F6E70648F4E7000003409A
S214004D5000100340002003400080E00F0EE000F04B
S214004D6021E000F024E000F0002070B5836AADF585
S214004D700C7DB3F5804F05D34FF4017420460DF536
S214004D800C7D70BD1B6B002BF6D04FF40B725B6A6C
S214004D9001A9984704460028F0D1064640F20125AE
S214004DA0B36AB3F5804FE7D21B6BB3F5804FE3D2FF
S214004DB000219B6A01A89847A842F1D040F203233D
S214004DC0984218BF0446D9E741F671330F4A10B52A
S214004DD0D169D36393680E4C23F44013A04288BF76
S214004DE043F4801393600B4A0B4CD2F81832A0425F
S214004DF023F0020388BF43F0020301F48031C2F8B7
S214004E00183211B10022014BDA6310BD00000340D6
S214004E10C017530200C0074080F0FA0237B50446B8
S214004E20684680E80600251D03C885E8050023734C
S214004E30069B0B4A2361BDF81C30A3820023236027
S214004E40136853B119461B68002BFBD10C60908881
S214004E50013080B2908003B030BD1460F7E700BF29
S214004E604007002037B50D461446FFF717FA70B115
S214004E70036973B14FF6FE72818A914209D1694681
S214004E8001200095ADF80440984703B030BD0120DE
S214004E90FBE70E20F9E7036937B514460D46828A0C
S214004EA063B14FF6FE718A4208D100206946009031
S214004EB0ADF80400984728B103B030BD2B60002041
S214004EC02280F9E7009B2B60BDF804302380F3E7CF
S214004ED038B50D461446FFF7E1F940B1224629469B
S214004EE0FFF7D9FF10B92B6803B9208038BD012021
S214004EF0FCE7000007B50379054A0193036806CA74
S214004F00009308300223FFF789FF03B05DF804FB27
S214004F1070E100002DE9F0410546984688B0036927
S214004F2008460E4617469847002869D1D8F8043038
S214004F305B0A012B02464FEA530300F10100F8D842
S214004F4098F8034098F802302403DB0203F4006369
S214004F5004F480541C43B8F800304FF00008C3F344
S214004F600A032344540304F460441C44294B6FEAA8
S214004F700444039327F07843FF430DF107001B22F8
S214004F8002A902938DF80780FFF7CBFB9DF8072058
S214004F90029B02A943EAC26327F078471B220493C8
S214004FA002978DF80780FFF7BCFB9DF80720029B51
S214004FB06FEA144443EAC26305934FF0FF330122BD
S214004FC006930794AB6907A906F1100098470122DB
S214004FD00446AB6905A906F108009847012240453A
S214004FE018BF0446AB6904A9301D98470122404506
S214004FF018BF0446AB69304603A9984700B934B1D8
S2140050003146284608B0BDE8F041FFF777BB08B048
S214005010BDE8F08101009AB2034B5A6D12B958658B
S214005020A3F85810704700BFE006002070B50C4685
S21400503090B9FFF7C5F958B1436B084D03F1400628
S2140050402A4618685968083303C2B3421546F7D192
S214005050034B23600423A380002070BDA40100201E
S214005060C40100202DE9F04116460546FFF76EFA0A
S214005070B04228BF304686B20F46B046B8F1000FA1
S21400508009D12EB1AB7DDA0744BF23F00103AB751F
S2140050903046BDE8F0812B68AC8A69681C44641A07
S2140050A0A4B2444528BF44463846224608F0C6FE09
S2140050B06A682B68A98A224419448A4238BF134674
S2140050C02744A8EB04041FFA84F86B60D6E7F8B50B
S2140050D01F46038A04461646EBB9C57DDDB101239B
S2140050E0013D0B700222C57500F11001FFF7BAFFF3
S2140050F0E37D9BB1228A3146BA4228BF3A46204613
S214005100FFF7B0FF238A1B1A2382E37D13B9638A55
S2140051101B1A6382F8BD00230B70EBE7638A2382B9
S214005120E8E72DE9F04104460F461146FFF70EFA70
S214005130A38A181A86B28E4228BF0E46B046B8F129
S214005140000F0BD13EB1D4E901329A4202BFA37DD3
S21400515043F00103A3753046BDE8F0812368A58AB5
S214005160A0681D442D1AADB2454528BF45463946B0
S2140051702A4608F063FEA2682368A18A2A441944D6
S2140051808A4238BF13462F44A8EB05051FFA85F858
S214005190A360D4E7F8B5044616461F4611B3FFF7DA
S2140051A0D5F9A58A281A80B2012829D9E37D63B1EA
S2140051B0E068658A05702D0A07D02268A38A013048
S2140051C01344984228BF1046F4E700236382A3687E
S2140051D00222E360204604F11201FFF7A2FFE37DFE
S2140051E00133E3753A4631462046FFF79AFF638A55
S2140051F003446382E37D13B9238A03442382F8BD04
S2140052000020FCE710B5044644EA010313F003034C
S214005210084609D1934201D1002010BD54F823104E
S21400522040F823100133F5E72146920008F006FE09
S214005230F2E7000013B504460379124A03330193DC
S21400524000F14403009306CA02231430FFF7E6FD7C
S21400525094E80600238A04F12C000193E368009387
S214005260237AFFF7DBFD237A22792168A4F845002C
S21400527004F1470084F8443002B0BDE8104008F05E
S214005280DDBD00BF68E1000070B50C4B0C4C064657
S2140052900D46D4E9010183E803001846FFF72AFE0D
S2140052A0D4E904010222074B1A7283E80300DE6089
S2140052B01D821846BDE87040FFF7BCBF40150020B1
S2140052C0ACE000002805002038B5202204460D4634
S2140052D00C30002108F0BFFD4FF0FF33C4E9003565
S2140052E0A36038BD2DE9F04F0F462DED028B00254B
S2140052F089B004464FF0FF311046C7F3130B9046B3
S21400530099468DF80B50FFF7DFFF5F456AD12B46B5
S214005310E1688B420DD0A26802EBC30052F833203E
S214005320561C0FD0C2F3130293450BD141684D1C97
S2140053300AD1237C002B57D1464809B0BDEC028B1E
S214005340BDE8F08F0133E4E74046FFF7BDFF0122DA
S214005350414620460DF10B03FFF7FEFB0028E8D080
S2140053609DF80B3089F800300020E6E72068361AF2
S214005370606CB6FBF0F63FE05046FFF7A5FF18EE70
S214005380102A514620460DF10B03FFF7E5FB844635
S214005390B8B1B91C03D0DAF80030BB4211D145468B
S2140053A09DF80B30DFF8B0E089F80030BEE80F005B
S2140053B00FC5BEE80F000FC59EE8070085E807008A
S2140053C06546DAF8081032E0002DB5D05F45CBD13F
S2140053D0394699F80030D8F8042004F10800FFF7A1
S2140053E013F9C1E7BB1CA4D1E66A701CBED12046E7
S2140053F0616AFFF721FA0646BB1C18BF012308EEB8
S214005400103ADFF854A0636A25680193636C03A919
S21400541003FB0655E36B05225B692846984703A8FD
S214005420FFF7C5F905F114031946002500934A1C39
S21400543005D0636C009A5B424A4013429CD03146CA
S2140054402046FFF7F9F9019BB342BDD0002DBDD130
S2140054500646D8E70BE000F0F80E00202DE9F04FE6
S2140054604FF0FF3300258B464FF6FF71044600F1E0
S2140054700806C0E9091387B0C362056205633046B3
S214005480FFF7B0F82046FFF779FB00285BD14FF610
S214005490FF79D4F824800027C84514BF4546002568
S2140054A0E3699F4252D32046FFF768FB002833D1BA
S2140054B0B34D2046FFF782FB06E12368E26B606C83
S2140054C0576900FB0530052201A9B84701A8FFF778
S2140054D06EF90128074603D0C31EDBB2012B12D893
S2140054E029462046FFF790FB0246012F2168676C8D
S2140054F0E06B434607FB051108BF0132FFF70AFDC4
S2140055002046FFF73BFB0135E3699D42D5D3204695
S214005510FFF734FB0028BAD000254FF0FF384FF6CF
S214005520FF73C1462F46C4E90853E3699F423FD341
S214005530A5EB0805012D5ED84FF6FF72636A93420D
S2140055406ED1904DB5E704F14008DDE7636CE26B81
S2140055502068D2F814C003FB0500052201A9E04725
S21400556001A8FFF724F902280FD0C84515D10BF182
S2140055700102606C216804F1400300FB0511E06B3A
S214005580FFF7C8FC2046FFF7F9FAE3690135B5FBDB
S214005590F3F2013703FB125582E729462046FFF750
S2140055A033FBB0F1FF3F14BF02465A460132E0E734
S2140055B0636CE26B2068D2F814C003FB0700052278
S2140055C001A9E04701A8FFF7F2F8824601A8FFF715
S2140055D0C6F8BAF1010F0CD8484538BF6762804557
S2140055E028BF8046854238BF05468146236A013378
S2140055F02362013799E74FF6FF7300256362E3697C
S2140056009D4299D2676C2068E36B052207FB050074
S2140056105B6901A9984701A8FFF7A1F80135EEE7F5
S214005620E26B676C2068556907FB0300052201A939
S214005630A84701A8FFF793F8626A616C2368524D89
S21400564001FB02331433A3624FF0FF332A46E362B2
S2140056506FF0010120460DF10303FFF743FE00281B
S21400566036D1AD6829462046E562FEF795FF2063F1
S21400567020B92046E16AFFF7FEF8E0622946204698
S214005680FFF7F9F80546A36A9D4223D16369656C66
S2140056902046A5F11402DD1CB5FBF2F503EBC505AB
S2140056A00335B5FBF2F5FFF789FA0235A8428046C6
S2140056B03ED22046616AFFF7BFF80027064604F18F
S2140056C0400AAF4218D3314D284607B0BDE8F08FE8
S2140056D0A56AC7E729462046FEF75EFF236B2946E4
S2140056E00344074623632046FFF7C5F80546002F08
S2140056F0C9D1C4E90B07C6E7474512D3626C2368D5
S21400570001A902FB0639E36B05225B694846984708
S21400571001A8FFF724F8534602464946E06BFFF718
S214005720F9FB31462046FFF787F801370646C8E7FB
S2140057303046FEF757FF164DA16AE36A994201D03C
S2140057404B1C01D10025B4E62846FFF7BDFD01221B
S214005750294620460DF10303FFF7FEF930B1D5E9DF
S214005760001230469DF80330FEF74EFFA9684A1C2B
S214005770E3D169682046FFF77EF80146DDE700BF03
S21400578003E000F016E000F0CC0E002013E000F07E
S214005790240F00202DE9F74F324D4FEA820AEA69BE
S2140057A0894602F4803341F6713201210093EA63A0
S2140057B02D4A8046D16083464A4657460FB938463A
S2140057C02EE00BF5005424F4FF5424F01F04C5F813
S2140057D014B0A4EB0B04E969BC4228BF3C46490759
S2140057E039D4164656F8041B2244A96196420ED1B7
S2140057F00422002121202A6108F0FEFB80B9212026
S21400580008F0FAFB60B93246A3443F1BD6E70821EE
S2140058100846019208F0F0FB019AC0B104232B6100
S2140058200122124BDA60009B13B100220D4BDA63A3
S214005830431C13D0A0B952464946404608F01CFB0C
S21400584000280B4808BF002003B0BDE8F08F56F8CC
S214005850041BA961CAE74FF0FF30E1E70548F3E70C
S2140058600548F1E700000340001003400020034015
S21400587010E000F021E000F024E000F02DE9D34F26
S214005880DDF8289004460F4690461E46BDF82CA02C
S214005890FEF704FD8346BBF1000F01D0BC4205D9DC
S2140058A04FF6FF74204602B0BDE8D08F9BF8083054
S2140058B09E421CD132464146DBF8040008F0DCFA72
S2140058C0A8B9B9F1000FEDD058460DF1020201A9B2
S2140058D0FFF7E1FA58B9019949B1BDF802305345CE
S2140058E005D15246484608F0C7FA0028DAD00134F7
S2140058F0DBF800B0A4B2CEE738B50C4611462568F2
S2140059000144AD1A2A4608F0C7FA256038BD0000E3
S2140059102DE9F84F07EE901A4B4B4C49DFF84C91A7
S2140059205B1A4B49D9F800600B4423F4FF53A0EBF5
S2140059300608DFF83CA123F01F03984505461446E9
S214005940CAF800807DD38718FEF756FF08B9FEF721
S2140059500DFD874272D8D9F800000719B7F5806F99
S21400596003D982223B4B1A7066E0DFF8FCB0224671
S21400597017EE901A584408F061FA374BC9F80070D1
S2140059801A6822B9332F57D9DBF834201A60186802
S21400599008EB070480451ED884421CD900F110038A
S2140059A09C4249D30644751B5D442B462B4A05F1A1
S2140059B0100153F8040B8B4242F8040BF9D1274828
S2140059C0FEF7DCFC10B98422224BCCE71022FF2124
S2140059D0284608F040FA224D224B07F003072868B5
S2140059E0E41B1C4058B908EA0300C0F500512144E6
S2140059F0FEF7AEFC2C6040B18522164BB3E7A04202
S214005A0003D2211A00F50050F2E7D9F80020164913
S214005A10D21BDAF80000FEF78DFC0446D9F8002009
S214005A20DAF80030D21B134410490F48CAF8003089
S214005A30FFF762FF002CDFD1BDE8F88F8322054B0D
S214005A4091E78722034B8EE71C0100201000002000
S214005A50F7240100850B0020140E0020040E002001
S214005A605413002000E0FFFF500F002050130020CA
S214005A70880B0020002337B5114C0093437A6060F2
S214005A80D0E90021206802F0D0FD238CDB050CD580
S214005A9063680C4D1B7A2A789A4206D0012B06D0F2
S214005AA0022B08D063681B7A2B7003B030BD2068C9
S214005AB002F090FDF6E7206802F092FDF2E700BFE4
S214005AC0581300203D07002013B50D4B01281B8BF3
S214005AD00C4CADF80430ADF8003002BF02238DF850
S214005AE00430042301A9206808BF8DF8003002F0B6
S214005AF07BFC6946206802F08FFC02B010BD00BF38
S214005B00ACE00000581300200022034B03211A616A
S214005B101868012202F0ACB9581300201FB5022302
S214005B208DF80630064B5A8B59690332ADF80420BF
S214005B3018686A4602F002FD009805B05DF804FB9E
S214005B405813002010B51E4C1946236986B023B39F
S214005B50A2F10800084322D1032101AA206802F01E
S214005B60E9FC636860615B7A022023769DF8043066
S214005B7004F11801DA1F53425341627E63F30002B8
S214005B80039B6276E361BDF806306383236998471A
S214005B9001220021206802F0D5FC06B010BD02F1FB
S214005BA07F40014305D10021012006B0BDE810402A
S214005BB0184712F4A0411ABF00210320FF20F4E783
S214005BC058130020F0B5194C194D87B0637A20465B
S214005BD00133DBB2272B88BF25236372FFF74AFF0A
S214005BE0627D4FF40073134902322868E768667CCA
S214005BF002F07DFC6B68104A5B7A06F00106D15C09
S214005C0030460391FFF760FF0123002205930399B6
S214005C102868009204AB049702F02EF910B1FFF743
S214005C2073FFD3E7054B2B6107B0F0BD3C010020A6
S214005C3058130020500100203DE10000FD6A0000DE
S214005C40EFF3108072B67047044B054A9A60D3F89B
S214005C50882042F47002C3F88820704700ED00E008
S214005C6000400000084B1B6F03F00703022B04D014
S214005C70032B04D0012B04D0FEE7044870470448E9
S214005C8070470448704700BF00800040C0EA21010A
S214005C9000F04902002D310108B5FFF7E3FF044B81
S214005CA01B6FC3F301330133B0FBF3F008BD00BF35
S214005CB0008000400048704700F0490208B5FEF733
S214005CC0DBFA7047FEE70000002307B5009325289F
S214005CD017D8DFE800F0135B1A252C37516A767A5E
S214005CE08A97A6B4165B561616765B252C25375B68
S214005CF06A25B4515151512525257A8AFFF7B2FFFE
S214005D000090009803B05DF804FBFFF7ABFF4F4B25
S214005D10D3F89030C3F304630133B0FBF3F0EFE73E
S214005D20FFF7BAFF494B1B6FC3F38023F4E7FFF777
S214005D30B3FF464B1B6FC3F380230133B0FBF3F076
S214005D404008DDE70193414BD3F8803103F00303AD
S214005D50022B0AD0032B0CD0012B03D1002101A863
S214005D60FEF792FF019B0093CBE7FEF741FA019006
S214005D70F8E7374B0193F5E700216846FEF784FF06
S214005D80BFE74FF0E0231B695B0702D5FFF784FFF0
S214005D90B6E72E4BD3F8400100F0030003282ED0C0
S214005DA0002818BF4FF40040AAE7284BD3F840312C
S214005DB003F00303032B46D0002B18BF4FF4004319
S214005DC0D1E7224BD3F86031F2E7204BD3F800023C
S214005DD000F00703032B12D010F0040009D1013B9A
S214005DE0012B98BF4FF400408AE7184BD3F80802FF
S214005DF0EEE7042B1ED1FFF74FFF800A80E74FF433
S214005E007A707DE7114BD3F8003103F00303012BC2
S214005E1005D0022B14BF00234FF40043A3E70D4B1D
S214005E20A1E70A4BD3F8803003F00303022BADD072
S214005E30032B01D0002063E7FEF7DAF960E7034B97
S214005E40D3F84032B4E74FF47A738CE70080004012
S214005E50002D310100F0490200B962B6704700001B
S214005E602DE9F04106460D4614460C4F0CB9BDE828
S214005E70F081EFF3108872B623462A46314638463C
S214005E80FFF788F903464046FFF7E6FF002BEDD004
S214005E90E41A0026A4B21D44E8E700BFC00C0020A8
S214005EA0002313B501F1080421461A46ADF8043064
S214005EB0ADF8060051F8080C083170B90BB1ADF812
S214005EC00420042201200DEB02010834FFF7C8FF6E
S214005ED054F8101C39B902B010BD51F80C3C1A44E5
S214005EE092B20123E6E7002034F80C2CEDE7000020
S214005EF07FB500230130CDE9043380B2054BCDE9F0
S214005F0001016946042000930392FFF7C9FF07B01A
S214005F105DF804FBEA01002008B5C3680020984736
S214005F20024B1868BDE80840FFF796BFDC0D00205E
S214005F302DE9F04FDFF8E8A287B09AF80030064661
S214005F408946009203F0FF089BBBFEF755FC074608
S214005F50FEF70CFA77B1A94BA94CD3F800B0C3F8FA
S214005F60008094F83430A0F50055ED1B53B3236839
S214005F709F4206D000264046009B1E7007B0BDE834
S214005F80F08F63689D42F5D1A2689E4B9A42F1D18C
S214005F90E368062BEED140F26C7362699A42E9D14F
S214005FA0E26B994B9A42E5D1C4F8188001238AF82F
S214005FB00030934F97F83430002B40F08380002653
S214005FC0B046D8E7A36B4022414604F11000019387
S214005FD007F041FF019B04F10800A36340F26C73D5
S214005FE06361884BC4E90075A3600623E360FEF78F
S214005FF0F9FA854B04F14000E36301F06DFE0028DA
S2140060005ED1636C13B16268B2FBF3F394F843207D
S214006010E361002AAED0656C002DABD0002BA9D072
S2140060202368B3FBF5F205FB1233002BA2D1676899
S214006030B7FBF5F305FB1373002B9BD17048FEF7F7
S21400604092FA874296D340F634726369CC3B934209
S21400605090D8B5F5007F8DD303216948FEF7B6FAD0
S214006060D4E90001E36B1B6898470546E36B022002
S214006070DB689847C5B959466148FFF7EFF9634BA7
S2140060800546984204D159465D48FFF7E7F90546AC
S21400609055B9636C276A143B59485F43FEF763FAA9
S2140060A05B4B874238BF1D46B5FA85F3E06B5B094C
S2140060B084F83430FFF730FF002D3FF477AF59E710
S2140060C04346A3E7DFF84CA10121384646F4802575
S2140060D0FEF77CFA52462946384604ABFFF702F92B
S2140060E0044600283AD19DF81030032B36D0022BF8
S2140060F037D0DAF81060F86BFFF70EFF002C7FF44D
S2140061005EAF009B1B78B342FFF459AF97F834801C
S214006110B8F1000F3FF453AF01213948FEF756FAA5
S21400612029463C4A36480DF10B03FFF7DBF80546D7
S21400613060B99DF80B30012B74D1DAF81030B342F9
S21400614076D13546DAF804A0FB6B65B9F86BFFF735
S214006150E3FE002D7FF433AFF6B20CE700262E4C9C
S214006160C9E70426C7E701225B6903A9504698479A
S2140061702849039B0968C3F3D31291423BD113F01D
S2140061807E0F2CD003A8FEF7AAFA4FF0040BA84205
S21400619028BF284603280446D344A5EB00050BD9A0
S2140061A0FB6B49465B6982085846984724F0030310
S2140061B09B4404F0030499445CB1FB6B01225B69C9
S2140061C004A9584698474846224604A907F036FED2
S2140061D0A14451460A48FEF74EFB8246B4E7FB6BE5
S2140061E002225B69504604A9984704A8FEF777FA8E
S2140061F04FF0080BCBE7094DA8E700BF1C040020B2
S214006200500E0020180E002020E1000013E000F0E1
S21400621002E000F0A00E00200BE000F022E000F00C
S214006220480E0020034D0448022B18BF05468DE794
S214006230024D8BE70CE000F00BE000F011E000F000
S21400624000239A6A10B5B2F5804F0DD2EFF3108096
S21400625072B6064A11781370FFF7FEFD21B1BDE84D
S21400626010409B6A1B6A184710BD00BFE00D002057
S21400627001282DE9F34740F03D818B88012B40F043
S2140062803B810B681C7814BB9D4B9E4D1C609E4B3F
S2140062901C609E4B1C609E4B1C609E4B1C609E4B65
S2140062A01C709E4B1C609E4B1C602B78022B01D1F1
S2140062B0FFF7C6FF01232B7000239A4A13709A4AF1
S2140062C013709A4A1370204602B0BDE8F087032C7C
S2140062D040F0FE80954BDFF82C921C78002C40F0A6
S2140062E0888099F80030002B00F0E6808A4B1B78F7
S2140062F0082B40F08280DFF80882D8F8000068B9E2
S21400630000239B6AB3F5804F5DD34FF4017041F2D2
S2140063100804A0420CBF862480246AE010F003061E
S2140063200EBF2646C6F10406F6B200EB060ABAF51C
S214006330806F00F2C7807E4B3246FF211844774FAD
S21400634007F089FD7B4A3B6812680AEB030191421D
S214006350C8F800A000F2BA806B4A15681D44554480
S214006360DFF8B0A125F4FF55DAF8000025F01F0588
S214006370854207D9291A00F50050FDF7E9FFE8B96C
S214006380CAF800500020836AB3F5804F18D21B6B02
S214006390B3F5804F14D21D69654AD8F800303968C5
S2140063A0A84705463B68D8F80020554913449E1B6D
S2140063B05F483E60FFF7A0FA002DA1D0852418E0C4
S2140063C04FF48175EEE7FEF7CFFC00289FD1836A75
S2140063D00190B3F5804FF1D21B6BB3F5804FEDD231
S2140063E001219B6901A898470028E7D101224E4B5E
S2140063F01A70002389F8003065E7002B5ED0494B01
S2140064001B78002B5CD0464E336843B9404B1022B5
S21400641049491868FDF78EFF0028EAD0CEE713F04A
S21400642003021CBFC2F10402D2B203EB0208B8F5A5
S214006430806F47D84148FF21184407F00CFD404ABA
S214006440404B324F9B1A404A3D68134423F4FF5397
S21400645023F01F03AB42C6F8008035D8A844FEF7E9
S214006460CBF908B9FDF782FF80452FD83368DFF8EF
S214006470A4801D44D8F8000025F4FF5525F01F051C
S214006480854208D9291A00F50050FDF761FF00285B
S21400649094D1C8F80050326828493868FDF74AFF9A
S2140064A005463B6832681E49134424483B60FFF7A4
S2140064B023FA002DAAD081E781249AE7842498E75E
S2140064C0802496E7822494E7872492E7832490E743
S2140064D0042C13D1132302211C4843700170FEF7CD
S2140064E09BFD1B4A1B4B128905329A801A4A1A607A
S2140064F042789A710024E6E60D24E4E60624E2E6F5
S214006500800B0020860B0020A0150020880B0020A2
S214006510140E002054130020E40100208C0B0020F1
S21400652050130020840B0020F1010020850B002072
S21400653080070020A4150020040E0020500F002025
S214006540100000201C010020F7240100F80D002098
S214006550E0060020E40D00200170000000239B6A86
S21400656010B5B3F5804F0ED2EFF3108072B601214E
S214006570054A13781170FFF76FFC23B9BDE8104089
S2140065809B6ADB69184710BDE00D00202DE9F04F2F
S214006590012891B004D00024204611B0BDE8F08F49
S2140065A08A88002A00F0C781A24F97F800A0BAF1A7
S2140065B0000F00F0C281A04D2C78002CECD1DFF843
S2140065C0A8B29BF80040002CE5D19C4E306802EB48
S2140065D00009B9F5806F02D982242C70DCE7DFF859
S2140065E074820968404407F029FCBAF1020FC6F825
S2140065F0009032D0B9F1030FCDD99148FDF776FE61
S2140066000378D8F80020012B3DD14368190E0129E4
S21400661003D1C3F307430A2B3DD98A4B9A4240F075
S214006620D8808368DA0334D502233B70FFF796FFE1
S2140066300020836AB3F5804F06D21B6BB3F5804FFC
S21400664002D29B6809A998477F4B099A1A607F4B2C
S2140066500A9A1A603B78022B9DD1DFF810923368B5
S21400666099F80020082A59D1DFF8F081774AD8F83F
S2140066700000126803F0030AC118A1EB0A01914258
S2140066800BD98324A9E76F4CA2420CBF862484242E
S214006690A3E78624A1E788249FE76B4A17681F4470
S2140066A007446B4BA7EB0A07186827F4FF5727F039
S2140066B01F07874209D9391A00F50050FDF748FE32
S2140066C0634B08B1852488E71F600020836AB3F512
S2140066D0804F20D21A6BB2F5804F1CD233681769F0
S2140066E0D8F800105B4AA3EB0A03B847074632689F
S2140066F0D8F80030A2EB0A02134450495548C8F8AF
S2140067000030FFF7F9F8002FDCD199F80030002BA5
S2140067107FF441AF04E04FF48177E8E7002A5AD1CE
S21400672033687F2B7FF637AFDFF83481D8F8000068
S214006730E8B9836AB3F5804F13D20123CDE90A0086
S21400674009A88DF82430FDF7D1FD0A9B1A0E6ED0ED
S214006750012A67D1C3F307430A2B63D867D14FF4E6
S21400676003703D4B186007F07FFBC8F8000000235D
S2140067709B6AB3F5804FA5D2374A9B6A1168D8F852
S2140067800000984700289DD1836AB3F5804F20D239
S21400679001233268CDE9070006A88DF81830D8F82E
S2140067A000A00392FDF7A2FD079B190E11D0012948
S2140067B0039A03D1C3F307430A2B0AD9002305A97A
S2140067C09B6A00915F6B5046224909ABB847002888
S2140067D04ED0842401E721490A681A440A60002240
S2140067E0926AB2F5804F13D21D48D76A1D49194ADE
S2140067F00068B8470746326810491648FFF77CF825
S21400680040F203239F4206D101238BF80030C3E6F3
S21400681040F20227EFE740F201239F423FF475AFB4
S2140068208024DAE600239B6A9B6B984799E74FF42F
S214006830C07096E7860B0020850B0020800B00209A
S21400684008020020EB17A603A0150020A4150020C0
S2140068505413002080070020A40B00208C0B00207F
S214006860A00B0020900B0020840B0020E4010020E9
S2140068709DF8243089F800300393FDF7A1FD039BB3
S214006880074648B3D0F834A0002B3FF485AE00236B
S2140068900693042335200DF1130206A98DF8133054
S2140068A0FFF746FB069BDB071AD599F80030082B46
S2140068B014D0BAF1000F42D0534610220CA903F1AF
S2140068C02800039307F0D8FA20B9039B0A9A1B6A9C
S2140068D09A4205D8892480E68246D5E7304BECE715
S2140068E097B14FF400513846FDF732FD00287FF48B
S2140068F0E9AE2AF4FF504FF4005120F01F00FDF7D8
S21400690027FD00287FF4DEAE99F80030082B18D15A
S214006910244B254A18684FF4005120F4FF5323F007
S2140069201F031360FDF714FD00283FF435AEC9E6DB
S21400693040F2022724E00D242EE681242CE6002FC8
S214006940CFD11A4B1A4F7B6000239B6AB3F5804F5A
S214006950BFF4B8AE174A9B6A1168D8F8000098478B
S21400696000287FF4AFAE836AB3F5804FE0D2394695
S214006970D3F82C90104A3368D8F80000C84707466A
S21400698032680E490C48FEF7B7FF40F203239F42D9
S2140069903FF43AAF40F201239F423FF4FDAD3FE79C
S2140069A0E0E00000A015002054130020115900005C
S2140069B0900B0020A40B002080070020800B0020F6
S2140069C008B5074B4FF000541B782BB1FFF7C6FDF8
S2140069D0044B2360FDF750FC2360FDF74DFC00BF21
S2140069E0F101002002020FF010B5164CA37E5B06E4
S2140069F026D4FFF789F840F2E243A18C226803FB15
S214006A000122A37A226094F84F2013442522B3FB78
S214006A10F2F002FB10332289A372013222810A228D
S214006A20636802FB01336360238B5A1E22833BB9E3
S214006A30A27E42F04002A276034A1370FFF7C0FF20
S214006A4010BD00BFE00600203C070020F0B5254C36
S214006A5087B0A37E5A0640D4234A23F0070343F0A8
S214006A600103A376136821891BB192888A4200D15C
S214006A709847A37A1D48234493F82A306375FEF797
S214006A80F9FFD4E900561A4C1A4A636801205B7A6B
S214006A907708D15CA5EB56060191FFF715F84FF481
S214006AA0807302960026643501993D44ADF8143093
S214006AB002AA3346206804958DF80C608DF816609F
S214006AC001F002FA054601223146206801F03AFD3F
S214006AD02DB1FFF789FFFFF7B9FF07B0F0BD064BF2
S214006AE02361FAE7E0060020E40D0020EC06002013
S214006AF0581300203DE10000656C000002282DE9D7
S214006B00F0411DD002D8012807D0FEE7032800F088
S214006B109E80FF2800F09B80F7E74E4C637C990729
S214006B2007D5FEF7F1FFFFF74DF8637C6FF34103DF
S214006B306374637CDA0768D4BDE8F041FFF742B8B7
S214006B404B78DB0740F183804C68227802F00F0810
S214006B50B8F1030F5BD0B8F1050F78D13E498B7BB7
S214006B6003F00103B3EBD21F4FD10622083104F124
S214006B70080007F081F90646002846D1FEF7C4FF54
S214006B80FEF7CCFF354D314607465C22284607F017
S214006B9062F9AB7EA5F8188043F02003AB76627EE0
S214006BA0237E012643EA0223AB84627F237F04F11F
S214006BB01E0043EA0223EB8494F82330C3F3040355
S214006BC085F84F3094F82330C3F3421385F85030DD
S214006BD01B232B85FDF734FCD4F80E30E27CEB60EB
S214006BE0A37C2F6043EA0223227D2E7543EA0243EC
S214006BF02B6195F84F30607DAB72E18A3144FDF72A
S214006C005BFCFFF723FF164B1E70BDE8F081124DAC
S214006C10AB7B03F00103B3EBD21FF6D1062205F1DE
S214006C20080104F1080007F027F90028EDD1094C07
S214006C304FF4007394F83D202868023204F13C01BA
S214006C4001F055FC637C43F002036374DDE7FEF756
S214006C505BFF71E73C01002058130020E00600208F
S214006C603C07002002282DE9F34780460C460BD04F
S214006C7003D8012800F0AE81FEE7032800F0B081BB
S214006C80FF2800F0AD81F7E74B78AB4D13F001031A
S214006C9000F0BC804A68AF7E117892F80090C1F38D
S214006CA0001161F38207AF76C9F3C001C7F300177E
S214006CB0B94240F0A88009F00301022900F0A18043
S214006CC0032918D0012940F09E804FF0000A56781C
S214006CD096B19A48818AFDF739FC0B1A9BB2BAF135
S214006CE0000F04D0022B92BF0023023B9BB29E42B1
S214006CF08CBF002301231E46A97EC9F38009C1F379
S214006D00C002914508D082F00102D20042F0200273
S214006D1021F028010A43AA762BB1AB7E87F0010743
S214006D2067F30413AB76AB7E854F13F0200F11D0BC
S214006D30696D6FF34513AB76002969D03B7895F8FB
S214006D40582043F003033B707A70B81C07F076F8BF
S214006D5000236B657B48FDF7F9FB003818BF012060
S214006D60AB7E774960F34103C3F3C002AB76C3F34F
S214006D7000139B0043EAC20343EA00103B787A788C
S214006D8023F01C03184338706F4F02324FF4007321
S214006D903868D2B201F0ABFBAB7E6468D90709D580
S214006DA06FF30003AB7600236B60FEF7B7FE286038
S214006DB0FDF796FB002E00F0A180237803F0030376
S214006DC0022B05D0032B3DD0012B40F097800026E8
S214006DD05A486578818AFDF7B9FB081A80B226B151
S214006DE0022892BF0020023880B28542ABB200F281
S214006DF0858031465148A21C02B0BDE8F047FEF738
S214006E00C9B99A4663E70026334675E71E468AE701
S214006E1095F828304B48BA1C0DF10701FEF757F9D4
S214006E2010F0FF000BD09DF80730002B08BF4FF086
S214006E3001083B78787068F301033B708AE74FF0EF
S214006E400108F6E7A3780C2B0AD80C2B0AD8DFE843
S214006E5003F03F2B580909090909600909091800B8
S214006E60142B7FD0394A12782AB1162B00F0968060
S214006E70182B00F0A28007223548022102704370CA
S214006E800DE00C2332484FF0FF320370012382706E
S214006E9043700222037100230621C270437102B0C0
S214006EA0BDE8F047FEF7B8B8617A237A294A43EA84
S214006EB0012393801346284943F8061BD4F8031091
S214006EC0C2F80610B4F807209A80627A9A7115E024
S214006ED0627B237B1F4943EA02238B800B461F4AB3
S214006EE043F8062BD4F80320C1F80620D4F8072070
S214006EF05A60B4F80B201A81627B9A7202B0BDE821
S214006F00F0872A89134B05329A80154A1A60E27870
S214006F10DCE7D4F803303A8C0D48134003F0FF0347
S214006F2022F0FF02134309210246C0F80130002375
S214006F3002F8011B5360B2E7E0060020A80B002011
S214006F40A8150020C00C002058130020D80D0020E3
S214006F50F80D0020E40D0020A54400001D450000AB
S214006F6001700000B4F80530B4F80320DB08934243
S214006F7028BF13462B8515231D4800216FF00404F7
S214006F806FF0270203700723817081714470092116
S214006F90C27003714471C271037280E72279E3788C
S214006FA01348134003F00303022B18BF01231722D4
S214006FB0032102704370837071E76279A1790D4BEB
S214006FC042EA01229A800C4A1A60D4F80320C3F8D9
S214006FD0062093E7094B9B7E9A078FD45B078DD4D8
S214006FE0FFF702FD02B0BDE8F047FFF72FBD00BF78
S214006FF0F80D0020E40D002029440000E0060020E3
S214007000054A08B5937E43F0400393760022034B6F
S2140070101A70FFF7D5FC00BFE00600203C070020F2
S214007020EFF3108072B67047FEF716BFF0B54AB1A0
S214007030012530261C4C8D4006FB00440BB341F264
S2140070401006A55130244443072904F1804404F572
S214007050703419D80F2765688E00B74025EA0705F3
S21400706002FA06F63543656052B90122302402FA68
S21400707001F10D4A04FB00209BB141F21003C15000
S214007080F0BD42F21006DCE70F27A1F10805E6681E
S214007090AD00AF4026EA070602FA05F53543E5607F
S2140070A0E2E742F21003EAE700C00340054B5B69E3
S2140070B0C3F38512827003F03F021B0B427003700D
S2140070C0704700BF00C007404FF040232DE98048BE
S2140070D0D3F89430A5B013F0400F1CAF1BD14FF07F
S2140070E00053002538461D60FDF700F9FDF768F9E6
S2140070F0C0B1446BFFF732FA1E9B13F0040600F093
S2140071003F81FDF75DF9AB6AB3F5804FC0F065814E
S214007110FFF796F806E04FF000531A68022ADED111
S21400712000221A60BFF34F8FBFF36F8FAF4BB0488C
S2140071305A6AB04C22F480325A62D3F894208442C1
S21400714022F00102C3F8942008BF4FF08042D3F823
S214007150C0101CBF20F01F02203A21F0FF0141F0B2
S214007160A001B2F1005FC3F8C0100CD3A24DA34E2D
S214007170296842F00102C3F898100131C3F89C60F8
S214007180C3F8A0202960844210D09B489C4B02681C
S214007190964923F01F0343F00303C1F89820C1F873
S2140071A09C30984B0132C1F8A0300260BFF34F8F7D
S2140071B0BFF36F8F05228D4BC3F894205A6A42F4B2
S2140071C080325A62BFF34F8FBFF36F8F3846FFF798
S2140071D06DFF8D4A936DD90313D4536B23F4FF03CD
S2140071E023F4FE4343F4BC1343F4A0635363136BCE
S2140071F023F4704343F440431363136B43F4E06398
S21400720013639DF87130012B0FD19DF8703063B970
S2140072104FF000531B687D4B1B687D4B1B687D4BF6
S2140072201B687D4B1B687D4B1B687D4BD3F880200D
S21400723042F00302C3F880201B6F03F00703032B02
S2140072403CD045F60E0202216F4BC3F88020754AEB
S2140072509162012102F5805291629A6DD203FCD4AC
S214007260714A1A619969714A01F000410A439A61AC
S2140072701A6A22F00D021A629A6A22F0330242F06B
S21400728001029A62604A6A4B916D33EA0101FBD1B2
S2140072900221644B9962936D5E00FCD4136923F45B
S2140072A0700343F4001313614FF000425D4B9A6184
S2140072B0022203F580539A6201229A620125524BFC
S2140072C0574C9E6A03F580535A489D62FDF77CFD35
S2140072D0236F06F0020643F480632367236F23F0D0
S2140072E0070343F003032367FEF7D6FCFDF76CFDA8
S2140072F02846FEF7E9FC504A236F904294BF0020D0
S214007300012023F4806343EA802323670EB94B4BA6
S2140073109D620123424A4A4DC2F880326B60494B57
S21400732004241B6C06AA2B660023352008A90893A4
S2140073308DF81840FEF7FCFD0623089A8DF81640D7
S21400734012F4803F8DF8173009AC40F0E4822146F5
S2140073502C200DF11702FEF7EBFD002800F08780C9
S2140073603C200DF1160207A9FEF7E2FD18B19DF8C4
S2140073701C0000F001009DF82A3060F3000372E064
S214007380002C3FF4C5AEFCF7F1FF8442BFF4C0AE5C
S214007390FCF7ECFF04F1400383423FF6B9AE20460B
S2140073A0FCF7ECFF00283FF4B3AE63696BB9FEF759
S2140073B047FFFDF705F80446FDF702F80B4B98600B
S2140073C023689D4663689847ACE69DF87030012BAD
S2140073D0EDD1FCF7F5FFB36A96E65B6A984704467C
S2140073E0FEF72EFF002CE4D19CE600BF00ED00E087
S2140073F0C0000020140100203C15002003000020DF
S21400740033010020E1FFFF3F00C0004000400020A5
S2140074100080002000C00020000001200040012065
S2140074200080004000D000402008B00B3C8C8C034D
S2140074300300014000B4C40480F0FA0200E00040FB
S21400744000C001A80080E00F296E02F8011B013B76
S214007450FAD29DF8293063F03F038DF829309DF865
S2140074602A3043F001038DF82A30C14B5C600024BB
S2140074704FF48071BF4BC04A5961C3E900229A603D
S2140074801C82BE4BBE4A5961BE48C3E900229A60C0
S2140074901C8200F055FCBC48BC4B21460360BC4B2C
S2140074A0BC4E436000F0C6FCAFA3D3E900233060B7
S2140074B0CDE900234FF0FF334FF0FF3200F0B0FF6E
S2140074C002224FF0FF31306800F0B7FF3C239422D1
S2140074D01E93CDE91C32962339463068CDE9204408
S2140074E022941F9300F06CFDAB4DAB4930682C70B6
S2140074F000F0D2FF10B10134032CF6D19C4C30685A
S21400750001F064F8B4F900202978306800F028FC0F
S2140075100146306800F0A8FF6468DFF808A3002C76
S21400752040F0FB815046FDF79DFBB37B64F3000300
S214007530B3731022994B9A4C83F82123002183F8C9
S214007540222304F1080083F8262383F8252383F8F2
S214007550232383F8202383F824235C2206F07BFC75
S21400756042F210738F4DE3608F4B904AC4E900538C
S21400757042F2015323814FF4907333840123137036
S2140075801B224FF000088A4DDFF89C922A803E208E
S21400759005AA0DF11501C9F800808DF81430FEF724
S2140075A0C7FC58B19DF81530CDF870803946C7F83D
S2140075B0048030688DF8723000F03CFF11230DF126
S2140075C013020FA936208DF81330FEF7B1FC2023E6
S2140075D0394639200DF112028DF81230FEF7A8FC5C
S2140075E080BB744B9DF8132018681B791C903B7168
S2140075F0002A00F09B811B2A28BF1B22531D8DF8F2
S21400760012300FA9531C0DF175008DF8733006F07B
S21400761015FC14A8FDF726FB674A9DF81230128861
S21400762024A9FA529A1C51FA82F20021149802F800
S214007630201CBDF85410093342F81F0C22F81B1CFE
S2140076408DF8123020233A200DF1110214A98DF87E
S2140076501130FEF76DFC48B9584B5A8B1B7FADF8BE
S21400766050208DF8523003238DF8113000224FF051
S2140076700208534B5348C3E90022534B80F804805A
S2140076800360FDF737FC5148514B80F804800360D7
S21400769010230372FDF7CEFD4E484F4B80F8048052
S2140076A003604E4B80F80880C360A0F81080CDE9D8
S2140076B00038434690E806001430FDF7AFFB9DF80F
S2140076C01310002900F03D810FA84FF01008FDF7B9
S2140076D0DBFD4348434B80F804800360FDF70AFC5B
S2140076E04148424B4FF6FE7B03600823404A037234
S2140076F0C260A0F810B080F80480FDF79BFD3D48FE
S2140077003D4AA0F810B002600C2202723B4A4FF0CD
S214007710020BC26080F80480FDF78CFD0823384811
S214007720384A03820260384A80F80480C26080F8D3
S21400773008B0FDF77FFD3548354B80F804800360C0
S214007740344B80F808B0C36001230382FDF772FD56
S2140077503148324B80F804800360314B80F808B023
S214007760C36063E0AFF300800855005100000000DE
S214007770F4010020C00C0020D80C0020A80B00202C
S214007780C00B002078E1000088130020455B000055
S2140077907C130020581300201200002000E100E0B7
S2140077A03C010020D6BE898E55555500D80D0020C8
S2140077B0E601002019E0000023E00000ACE0000035
S2140077C0400700206015002026E00000800500200D
S2140077D029E00000540700202CE00000CAE000006A
S2140077E0801500202FE00000D805002040E00000B3
S2140077F0716200003006002051E000008D65000038
S2140078007804002062E00000D7E000008806002030
S21400781073E000003CE10000D004002084E000009B
S2140078201943000060130020180400204FF6FE7372
S2140078300382FDF7FFFCA748A74B80F8048003608F
S214007840A64B80F808B0C3604FF6FE730382FDF7C0
S214007850F1FCA34BA34A1A604FF6FF729A809DF87C
S2140078601220202A05D8931D39469F48637506F0D6
S214007870E5FA9DF81120202A06D8931D9B4884F827
S2140078803D3014A906F0DAFAFEF73EF9227C617C58
S214007890B2FA82F35B0963F30001237D617462F33D
S2140078A00303B27B02F0010262F386132375637D45
S2140078B00BB906236375BAF804108D4BB068C4F88C
S2140078C016009980042194F83C3061F3030362F3B8
S2140078D0861384F83C3094F83D3013B9062384F8B8
S2140078E03D30B068BAF80420824BC4F83E009A8057
S2140078F0FEF768F9804E814B1B782BB1DFF80C82BF
S2140079004046FCF723FEF8B97D4A136923F00403CA
S214007910136130BFEFE7224699E52068B060A28881
S214007920A379AAF804208AF8063002E608238DF820
S2140079301230744B1A889B78ADF875208DF8773026
S21400794067E603216F48C0E6EFF3108472B60023A3
S21400795040461A460DF11901FDF7B9FB2046FEF721
S2140079607BFA9DF8193013B10023C9F80030D9F816
S2140079700020EFF3108472B6C2F501739BB2404646
S21400798032440DF11901FDF7A2FB03462046FEF72F
S21400799063FAD9F8000018440328C9F80000AFD9E4
S2140079A03488231D9842ABD306D870880023042859
S2140079B006D0062800F07E810023C9F800309FE735
S2140079C0327904F1FF3A122A6B801FFA8AFA18D825
S2140079D0012A19D9931E4C4F102B15D8DFE813F047
S2140079E0160014002C00140045001400F7001400C4
S2140079F09A0014001400140014001400240114004B
S214007A00CA00522A00F0D0800622AAE0BAF1020F7D
S214007A1040F04E81B6F805400022B4F5007F28BF3E
S214007A204FF400740323114650463B70A7F80140FC
S214007A30FEF75EFA2C80BFE7BAF1040F40F09180A3
S214007A40B6F80540A0B2FCF729FC58B1027A052129
S214007A50022A0CBF01230223397041687B707C80A8
S214007A60032076E06C800A227BE0DFF8A4B0073CB7
S214007A70A4B20194CDF800B00223B6F80710B6F809
S214007A800500ABF10202FDF7F9FE4FF6FF7A50450E
S214007A90044604D17368C3F30F236B80E3E7002327
S214007AA00130CDE9003351460223ABF1020280B229
S214007AB0FDF7E4FE072350451CBF00F1FF3080B2FF
S214007AC03B70A7F80140A7F80300002204201146E7
S214007AD03FE000BF2004002095E000002D5000008D
S214007AE048070020400700205801002080010020A1
S214007AF0520100207A010020140200203C070020DA
S214007B0000ED00E01FE00000EA010020A80B0020C6
S214007B101F020020BAF1020F40F0CA80B6F8050036
S214007B20FCF7BCFB00283BD0037B990714D52B88B9
S214007B300DF11A02013BADF81A30B6F805000BA994
S214007B40FDF7C6F9024640B90B23BDF81A200B997B
S214007B503B70FEF7CDF92FE752467368C3F30F2349
S214007B606B800124584B307969881C705870598096
S214007B701A71AAE7B6F80500FCF790FB80B1037B04
S214007B801A070FD5E21E92B25049B6F80500FDF767
S214007B9069F902460028E0D1132301463B70D8E776
S214007BA00122DAE70322D8E7B6F80500FCF776FBF1
S214007BB000283FF401AF037B5B077FF5FDAEE21EB6
S214007BC04249B6F8050092B2FDF74CF9F4E6631F99
S214007BD09BB2022B01D0102B6AD10022CDE90022E5
S214007BE0DBB23B4AB6F80710B6F80500FDF746FECE
S214007BF04FF6FF73984204463FF44CAF2B880DF1C6
S214007C001A02043B0BA9ADF81A30FDF761F90246DB
S214007C1008B16C80A5E70923BDF81A203B70931CB9
S214007C200B997B707C801BE7631F9BB2022B01D0F5
S214007C30102B3DD14FF0000ACDE900AADBB203932A
S214007C40234AB6F80710B6F80500FDF717FE4FF6FC
S214007C50FF7B58450446039B3FF41CAF0130594652
S214007C60CDE900AA1A4A80B2FDF708FE82462B88A4
S214007C70584518BF00F1FF3AA3F106030DF11A02AA
S214007C8020460BA918BF1FFA8AFAADF81A30FDF77E
S214007C901FF902460028BCD11123BDF81A203B70FC
S214007CA0131D05200B997B707C80A7F804A050E775
S214007CB0042256E7CDE90D33064B0BA90B9302239E
S214007CC00C93FEF7EDF877E6EA0100201B02002091
S214007CD01D0200201000002007B5014601A8FFF78E
S214007CE0E5F99DF8063001220B804FF480730020E2
S214007CF04B80054B9B680A3303F01F0302FA03F31D
S214007D004B6003B05DF804FB0080E00FFEE7000068
S214007D1008B5FDF799FF074B0748DA1C121AC11E73
S214007D2022F00302994288BF0022044906F086F832
S214007D30FCF724FA1C01002010000020B804010003
S214007D4038B50446054D00F0BDFB0FCC0FC594E8D2
S214007D500F0085E80F00002038BD00BFA8160020E1
S214007D6047F6FF739A42F0B55ED003295ED8304ED0
S214007D70CF0016F8313006EBC100012B85780DD107
S214007D80C3785B1B23B1416831F91310914202DCC2
S214007D90E818C0B2F0BD013B1BB2F3E7406800280C
S214007DA0F8D0B0F90030934204DBB0F902309342C9
S214007DB0B8BF134682883E44FF2A19BFC82428212C
S214007DC0B0F90640B0F90810A4EB03040CBF01227A
S214007DD0002294FBF1F47678224414B2721EA2427A
S214007DE0A8BF22464FF47A7700EBC204E188A46865
S214007DF0013213FB014112B221EAE17101F5FA7179
S214007E00B242B1FBF7F104DA00EBC204A4888C425C
S214007E10EAD200EBC20232F8040C884228BF0846B9
S214007E20A84238BF2846B4E7FF20B3E70020B1E7F2
S214007E30A816002037B50446019178B10A4D2B7874
S214007E407BB90A4B186000F08DF82046019900F0C7
S214007E507AF8031E18BF012304462B70204603B091
S214007E6030BD0024FAE700BFCC160020C81600205C
S214007E700846114600F08AB8F7B5124D04466E68FB
S214007E800F4600200121CDE90032B047DDE900327F
S214007E90064604B10C342046394601F0C1FC0446BF
S214007EA018B901202B68984704463EB100F0D2FB73
S214007EB000B91CB100216B6808469847204603B0FD
S214007EC0F0BD00BF20000020F7B5114D04460F4658
S214007ED0002001216B6801929847019A064604B17A
S214007EE00C342046394600F0ACFA044618B9012096
S214007EF02B68984704463EB100F0ACFB00B91CB1B5
S214007F0000216B6808469847204603B0F0BD00BFC6
S214007F102000002070470000431E033306D8044BA1
S214007F20984228BF1846642838BF6420704700BFB0
S214007F3040420F00431E012B03D9031F58425841ED
S214007F4070470120704738B504460D46002100F002
S214007F5089FA2946204601F0BDFA00280CBF2046C3
S214007F60002038BD10B5044600F072FD44B1054A45
S214007F70D4F88830002B08BF1346034A136010BDA0
S214007F80E36FFFDE157F00001800002010B50C46DA
S214007F9000F080FD1CB100F0D3FD0128FBD1BDE848
S214007FA01040024B002103205B6818472000002089
S214007FB000B10C3000F008BE00B10C3000F01ABE64
S214007FC008B502460868FFF7A7FF08604868FFF78D
S214007FD0A3FF48608868FFF79FFF8860C868FFF7C0
S214007FE09BFF0B69C860581C03D00C48834228BF0F
S214007FF003460B614B69581C03D00848834228BFD0
S214008000034688694B61FFF787FF886102B10C322F
S2140080101046BDE8084001F0BDBA00BF40420F0060
S2140080202DE9F04F436F80460E4683B013B10389A7
S2140080308B427AD0D8F87070002F46D0BC68002CDF
S21400804043D0F968002940D0D8F884300193002B3B
S2140080503FD04FF00009A8F10C0B4D46CA4600E091
S214008060BC68C5EBC50204EB8204E2890135B24266
S21400807016D8228AB24213D3B4F91210B8F93401D2
S21400808001EAE172884259DD584698F8C010FFF7B9
S21400809067FE98F8052081468242A24605D9F9680F
S2140080A0A942DDD8BAF1000F46D00023524640461A
S2140080B01946019CA0470020A8F80860C8F874A0DC
S2140080C088F8C99003B0BDE8F08F032003B0BDE880
S2140080D0F08F99461D469A46A8F10C0BC5EBC502D3
S2140080E004EB8204E289B2421AD8228AB24217D33B
S2140080F047F6FF73B4F912209A4203D1A2464FF016
S214008100FF09D8E702EAE272584698F8C010FFF76F
S21400811027FE98F8052081468242A246CBD9F96808
S2140081200135A94205D9BC68D8E7002003B0BDE8F0
S214008130F08FBAF1000FBED10120C3E7A246B4E724
S2140081402DE9F04FDFF8B0B185B0044616461F465D
S214008150009101F039FCBBF8005001F03FFC00280C
S2140081607CD1DFF89881636FD8F8002093426AD0FC
S21400817000F0E6FC01284FD1DFF884A1DAF80030E1
S214008180002B5BD0226F934270D0D4F874C018686E
S214008190116810B1884200F08380DCF80020204689
S2140081A001F028F90023012605460193D4F88490AF
S2140081B08DF80F70B9F1000F67D0002220461146E7
S2140081C00DF10F03C84785B9236FCAF80030636FF7
S2140081D0C8F80030019B0BB9002E3AD0009B204611
S2140081E0CBF8003000F078FE05468EB1B5FA85F083
S2140081F040F2A2223321400900F0BEF9394620465B
S21400820001F004F93A4B616F1B68A4F10C00984723
S214008210284605B0BDE8F08F012000F03BFC00F0DA
S2140082208FFC0128FBD1334BDFF8D4A05B6800211C
S21400823003209847DAF80030002BA3D1236FD4F838
S21400824074C01968A9E7002B92D0009B9D428FD17D
S21400825087BB0025284605B0BDE8F08F0023DFF871
S2140082609C80C8F8003001F0B1FB7CE7D8F800101D
S214008270D4F874C000298AD0614588D1009BEB1AD7
S21400828018BF01230025019390E7617994F8C9305F
S2140082903A46994228BF1946204600F0B3FD92E7B9
S2140082A0D8F80010DCF8002011B10968914210D00F
S2140082B0596874E7002ECCD00122D4F884508DF88B
S2140082C00F205DB10022204611460DF10F03A8478E
S2140082D0BFE7002301261D46019367E7617994F8FE
S2140082E0C9302046994228BF194600F08BFDB0E7FA
S2140082F01800002020000020D0160020D8160020ED
S214008300D4160020F8B50E460546FDF799FC314612
S21400831007462846FFF784FE044620B13846FDF798
S2140083209BFD2046F8BD0346024631462846FFF729
S21400833007FF04463846FDF78FFD2046F8BD00BF10
S214008340F8B50E1E18BF01260D4607460024622209
S2140083501F21304600F010F9284602F09DF83046FE
S21400836050221F21C7E91C5487F8CC4000F004F9BE
S2140083704FF6FF734FF01C0CE868E1B288420BD84A
S2140083801E4600230A4A314613600A4A38461360DE
S214008390FFF7B8FF3046F8BDAA680CFB0122D68965
S2140083A09E4202D2002EECD033460134E5E700BFF1
S2140083B0D4160020D8160020008970470A7838B5F1
S2140083C005461046FFF7B6FD60B14C782046FFF72D
S2140083D0B1FD38B12243530704D42846BDE83840DF
S2140083E000F03EBC012038BD00B10C30FFF7E6BF00
S2140083F010B504460878FFF79DFD58B14A78104638
S214008400FFF798FD30B1042A04D02046BDE810409E
S21400841000F05CBC012010BD00B10C30FFF7E8BFD7
S21400842030B4DDE9024500B10C30CDE9024530BC80
S21400843000F0CCBA084601F0ABBC00B10C3000F03E
S214008440B8BB37B504460D460192FFF75BFF38B957
S21400845029462046019A03B0BDE8304000F0A6BB8E
S21400846003B030BD01F0C2BA13B504460020019136
S21400847002F010F854B1D4F8903053B9019904F1D1
S2140084800C0002B0BDE8104000F0E2BCD4F8843026
S214008490FFDE022002B010BD38B5044648880D46FF
S2140084A001F0F8FF4CB1D4F890304BB9294604F1EE
S2140084B00C00BDE8384000F053BCD4F88430FFDE32
S2140084C0022038BD01F0E7BF38B505460C46FDF77B
S2140084D0B7FBA9696B690C4023436B61FDF7BCFCD5
S2140084E000200CB9002138BD4FF40071FBE700B145
S2140084F00C3000F017BF00B10C3000F02FBF0000AA
S2140085004FF4007307B50A490DF10602ADF80630C0
S214008510FFF7F1FFBDF80630B3F5007F05D102285E
S21400852008BF002003B05DF804FB0120FAE700BF97
S214008530DC1600200846114600F010BE00B10C30D4
S21400854000F0DCBE38B51546044600B10C3411B157
S214008550204600F020FF25B12046BDE8384000F058
S2140085601DBF38BD024B1960024B1860FEE700BF06
S2140085701C000020E018002008B550B90548064B3E
S21400858001601A60054B1A68054B1A601868FFF7F9
S214008590E9FF08BD1C000020DC180020C8160020DB
S2140085A0E0180020034618B15B7B0C3013B1084777
S2140085B05B78FFDE0220704710B5044601F0E2FA51
S2140085C02046BDE81040032100F04EBA00B10C3042
S2140085D0FFF7F2BF0149FFF7E5BF00BF5D9B000054
S2140085E00149FFF7DFBF00BF359B000037B5437872
S2140085F005460C46BBB101F04BFB61680246019094
S214008600284601F0EFFA206890FAA0F0000A00F081
S214008610A5FBA17A2089019A81F0010101F004FBF3
S214008620002003B030BD0220FBE71FB500B10C30C0
S214008630ADF80C309DF81830CDE9011201A98DF87F
S2140086400E30FFF7D3FF05B05DF804FB002070473F
S21400865000207047014B1878704700BFE4180020D0
S214008660024BD868C0F30360704700BF000002A842
S2140086707047000038B16FF0FF02034B10401A62DB
S214008680A3F580531862704700E000A8C2690E4B3D
S21400869002F06002402A11D0602A03D0202A10D1AE
S2140086A0012206E069B10A68012A0AD94A6942F03D
S2140086B00102DA638022054B1A61704740F201120C
S2140086C0F7E70022F5E700BF001F00B0000002A891
S2140086D008B5094AFFF7C4FF0B2806D00C2809D0B6
S2140086E0092814BF0020022008BD106F10F4803047
S2140086F0F0D1F9E70220F7E7000002A80121094BB4
S214008700D3F8EC20196352074FF4005148BF0422F7
S21400871003F50053D96244BFA3F58053C3F8EC2099
S214008720704700BF0040004437B50C46174D41B9AE
S2140087300A46072104F096FD154BAC615C6003B059
S21400874030BD0722114604F08DFD0722114B012192
S214008750DA60237901A82B766379019304F0A3FDF0
S214008760019BC2B2D34000F00F0040EA03106876C7
S214008770A379094AAB76E379EB762368EB61237934
S2140087800133136204F08EFDD9E700BF001F00B06E
S214008790181F00B0006000A8004000A800F01803F2
S2140087A0182B074B02D100221A647047010701D527
S2140087B00122F9E7C206F6D540F20112F4E700BF3F
S2140087C0001F00B010B54B780C46002B3ED13B4B3B
S2140087D01B7813B106223A4B9A670022394BC3F82E
S2140087E08C204FF0805203F5F033DA67A3F5005380
S2140087F01B6F5B0208D4C36913F0800F4FF400139D
S21400880014BF314A314A13624FF060522F4B1A623E
S2140088104FF480722E4BC3F8EC20C3F8E020A37808
S214008820002B41D140F6FF722A4BDA62E378002B28
S2140088303DD140F6FF72274BDA656022264BDA649C
S21400884003F5E833402200201A6710BD4FF0605150
S214008850013BDBB2022B8EBF0023204A52F82330A6
S2140088601A4A43F4001311624FF08051A2F5805269
S2140088701362A2F58832936F23F0060343F00403D5
S2140088809367174BD9670423C2F88C3003F010FEA9
S2140088900028C4D04FF480730D4AC2F8E030A2F529
S2140088A08052C2F8EC30BAE7FFF728FFBEE7602236
S2140088B0034BDA6403F5D833C4E700BFEC18002096
S2140088C0006000A8004000A8005001A8006001A8B1
S2140088D00060004400400044005000A864E200002D
S2140088E0001002A8044AC002D36900F4FF2023F453
S2140088F0FF231843D061704700C000A870B5154626
S2140089000C4601F00B0323EA02012A4A2B40D164ED
S214008910A2F58052D364630706460CD503F0A6FF83
S2140089204FF4007315F0040F14BF234A234A536212
S2140089300422234B1A67E00606D515F0100F14BF65
S21400894000221B221F4B5A65210618D52A061FD562
S2140089504FF40012184B1A62012203F58053C3F835
S2140089600021FDF76DF90E210546032002F02CFECE
S21400897040F20122134B2846DA62FDF76DFA14F036
S214008980600F03D03046B16FFFF780FE002070BD49
S2140089900D4B1B6F5B02F2D44FF4001196F8B23009
S2140089A0064A1162002BEAD00122034BC3F80021CD
S2140089B0E5E700BF006000A8005001A8006001A81D
S2140089C0002002A8004000A8000002A8F7B5D0E9E1
S2140089D03AC71946DDE9086304468CEA060587EAC5
S2140089E003001540084085EA0C057840C4E93A5073
S2140089F000250B4022F0010043F4007306EA000253
S214008A0043F00203CDE9005503F070FB2378DA0744
S214008A1018D5D4F8EC309B0514D54FF48031204699
S214008A20FFF752FD237865F300032370D4E93A2359
S214008A3002400B4052EA030104D00449A4F10C00A2
S214008A4009688847002003B0F0BD00BF280000205A
S214008A50034A0368002B08BF1346024A1360704798
S214008A60718600002800002031F00F0010B509BF05
S214008A70044C0120E36A23F00F0204BF0A43E262BB
S214008A8010BD00BF001F00B0014B002019637047E7
S214008A90001F00B003282DE9F3413DD8204B1E5C93
S214008AA0204B1F5C204B13F80080FDF7C9F80546E5
S214008AB003F0F6FC044640B100230022CDE9003363
S214008AC001200023002103F011FB3946304603F055
S214008AD0E5FE42463946304603F034FFB4B1134B48
S214008AE01B6803B10C33124A126F520208D4DB69BA
S214008AF013F0800F4FF4001314BF0E4A0E4A136291
S214008B000E490868FFF7B6FD00230B60284602B042
S214008B10BDE8F041FDF7A0B902B0BDE8F08100BFA6
S214008B2070E2000074E2000078E20000C816002040
S214008B30000002A8005001A8006001A8001900204B
S214008B4008B5FFF78DFD0138C0B20B2802D8054BDB
S214008B50185C08BD044B5B6913F0060F0CBF0120C0
S214008B600420F6E77CE2000000C001A808B50D4B23
S214008B701A6F12F0A00F13D15B6F5B0701D50120AF
S214008B8008BD094BD3F8CC3E23F07F4323F0FF0308
S214008B90002BF4D0FFF764FD092801D00C28EED195
S214008BA00020EDE7000002A8001000B0114603F018
S214008BB0D5BC30B4C56985EA02030B406B40C3617F
S214008BC030BCFFF79BBE0000014B186A02F00EBDDA
S214008BD0004001A8836F4BB11A68022A06D993F8A1
S214008BE0250030B11B6AB3FBF0F070470C38FFF776
S214008BF0DFB97047014B186A02F020BD004001A89B
S214008C00826F72B11368022B0BD9536A13F47F4F2D
S214008C10C3F3072008D0126ADBB25343B3FBF0F06D
S214008C2070470C38FFF7C8B97047000043785A1FE2
S214008C30012A01D9082B05D14B7B2BB1012B05D07E
S214008C40022B05D0FFF7DCBF02487047024870478A
S214008C500248704720A1070048E8010040420F0084
S214008C6070B50E46FCF7ECFF0546FFF731FD0446EF
S214008C7020B12846FDF7F0F8204670BD03F0F6FD5B
S214008C80104B3278D3F8CC3E022A23F0F00315D0EE
S214008C90042A0CBF0222002243EA02137278022A38
S214008CA00ED0042A0CBF0222002243EA8213054A91
S214008CB0C2F8CC3E0422044B1A67DAE70122EBE73F
S214008CC00122F2E7001000B0002002A838B50D46D9
S214008CD0FCF7B6FF04461E4AFFF7C2FC062826D855
S214008CE004282BD8032829D003F0C0FD194B2A7876
S214008CF0D3F8CC3E022A23F00F0324D0042A0CBF5C
S214008D000222002213436A78022A1ED0042A0CBFCD
S214008D100222002243EA82030E4A2046C2F8CC3ED4
S214008D2004220D4B1A67FDF797F800200AE0072883
S214008D30DAD1D2F83031002BCED1D5E72046FDF778
S214008D408BF8022038BD0122DCE70122E2E700BFF3
S214008D50000002A8001000B0002002A802F0ECBC40
S214008D602DE9F8430E780446032E0D4690F8C08091
S214008D700BD100275FFA87F9484601F0AFFC08B12F
S214008D804E4602E00137032FF4D1304601F0A6FC30
S214008D9098B384F8C060AB8804F1C006A4F8C43069
S214008DA06B883046A4F8C230AB88C4F84431FF2341
S214008DB0A37101F0DDFB054600BB304601F084FCE4
S214008DC00546D8B9636F5BB194F8C010414507D02B
S214008DD0B3F91220A4F10C00FEF7C2FF84F8C90014
S214008DE0204601F0CBFD0121A4F8C40004F1880060
S214008DF002F04EFF2846BDE8F8830125042384F8D8
S214008E00C030F7E770B5054690F8C0000C46042859
S214008E10164618D0FF2918D001F0ACFCA04204D8A2
S214008E2095F8C00001F0A6FC04462046AC7101F09F
S214008E3049FDA0F1FF035C425C4116B9284601F0EB
S214008E40ADFC204670BD0224FBE70124F9E70000D4
S214008E5038B590F8C0300446042B39D0456F4171C0
S214008E609DB3D0F88430BBB990F8C9308B4219D383
S214008E7000222046FFF7C6FF054658B9154B1B785B
S214008E80022B07D8204601F079FD012104F1880065
S214008E9002F0FEFE284638BDB0F93421B5F912308E
S214008EA09A42E5DD0022204694F8C910FFF7AAFF93
S214008EB005460028EED160672046FFF77DFA01469A
S214008EC02046BDE83840FFF71DBAFF238371E1E76F
S214008ED00225DFE73600002070B5436A8AB0012B12
S214008EE003D1002528460AB070BD0446784902F032
S214008EF077F9666F2589A0672EB133681BB15B686A
S214008F00002B40F09780FCF79BFEFCF7A5FF0123A3
S214008F10A06F8DF80A30B389D6E90121EB1A9BB20F
S214008F2001FB03226B49ADF808300B6801928342BF
S214008F3016D048B103683BB103692BB1D3E90012E0
S214008F409B68C4E9221204E09FED5F7B002384ED5A
S214008F50227B0146C4F890302046FFF797FBA06FAF
S214008F60002842D00368032B3FD920469DF80A20EC
S214008F70019905AB02F028FC002857D1564A5749FC
S214008F80FFF76EFB431EDBB20B2B44D8D35C012BE2
S214008F90F6D105A901A802F089FD0546002845D1AD
S214008FA0237860F30003237000F030FF636F5A6984
S214008FB0431E1668DBB2FD2B039642D85368012881
S214008FC0049361D10646D91C49D8024603A9204617
S214008FD000F080FE002E85D1D4F8EC309B0559D4E5
S214008FE0237843F0010323707CE73B4A3B49FFF7B5
S214008FF037FB431EDBB20B2B08D8D35C012BB4D057
S214009000FFF72EFB431EDBB20B2BF6D94B6913F092
S214009010060FAAD0EBE74B6913F0060FB0D105A9EF
S21400902001A802F043FD05460028B9D002252846CF
S2140090300AB070BD1A68032A7FF665AF9B6A5B0E9E
S21400904067E7F31C14D9264B01361B6818BF0126A8
S214009050D91C17D9FF28536831D00493BAE70133D7
S2140090601F4B08BF00265B68DA1C08D80493ACE7E1
S21400907001265368FF280493A5D00020A5E7FF2803
S214009080A8D1FAE70393F4E7024603A9204600F0C6
S21400909021FE27E74FF480312046FFF715FAD4F873
S2140090A0E820D4F8EC3002400B4052EA03013FF4CB
S2140090B019AF0C49A4F10C000968884712E7012093
S2140090C0049380E7AFF3008000000000000000007B
S2140090D0FC1F00B0F81800207CE2000000C001A8C9
S2140090E04C000020280000204FF4807104F0CEB819
S2140090F038B590F8CC400546ACB1FCF7A1FD1F2270
S214009100094B013C5A621440A3F580535C62D5F8C3
S214009110D020A3F580539A66D5F8D420DA66BDE849
S2140091203840FCF799BE38BD006001A88A7803462F
S214009130012A10D8CA78012A0DD8087858B9487874
S214009140032808D808B1012A05D10868C3F8D80052
S2140091501846FFF737BB01207047000037B50DF102
S21400916006020D4601F0D2F8044688B185B12B7888
S21400917013F0F70F0CD0FCF763FD074BBDF8062085
S2140091801C60064B1A806A88054B1A80FCF764FE42
S214009190204603B030BD00BFF0180020F4180020B1
S2140091A0EE1800202DE9F74306461546084619B97D
S2140091B0012003B0BDE8F083002AF9D0032905D8C2
S2140091C00022114601F0A2F80028F1D08178038829
S2140091D0027990F80580C488B0F9000001F007070E
S2140091E00028C0F28580A7F1070CDCF1000040EBF8
S2140091F00C00052F287294BF0020C1F3001068727F
S214009200C1F38010287301F0880080283AD088289F
S2140092103AD008283AD10120C1F340116873A973E7
S2140092200AB996F8BA20013AD2B2EA73F269D206BF
S21400923058D4063F012F55D82E4A063B526D9BB296
S214009240062269462C4800F0CBFE9DF80070E30429
S214009250A7F132077FB21BD49DF801004400E0B2AC
S214009260D6F880300BB139469847E8726A7B3046AC
S214009270DDF80210AF7202F013FE06232860AB7111
S214009280002096E70220C7E70320C5E70020C3E7D3
S214009290B36FC4F30B04E4008BB11A68022A0ED92C
S2140092A093F824300BB1B4FBF3F4A04516D8BCB148
S2140092B0C8EB0820B0FBF4F0C043C0B2D0E730469D
S2140092C0FFF788FC294681463046FFF7AFFC0028AA
S2140092D0EBD009FB04F4B4FBF0F4E6E70020BFE7AC
S2140092E02046BDE70020802328606B81A87160E7D8
S2140092F002205EE7004000A838400044F8B5064665
S21400930014469779FFF74EFF054648B9A3793BB157
S21400931021463046A771FFF789FC214602F08EFDF4
S2140093202846F8BDB3FA83F3192B084610B5114644
S21400933012D0C3F11903DBB2062B28BF06231A4648
S214009340941DE3B201249C40A4B2A14228BF21464A
S21400935000F0C4FD204610BD0022F1E71388084641
S2140093603F2B10B515D9B3FA83F3192B0FD0C3F1E1
S2140093701903DBB2062B28BF062319468B1DDCB269
S2140093800123A340138000F0C7FD002010BD00217C
S214009390F4E70120FAE7FFF7B1B9000070B54FF423
S2140093A080640020094B0A4DD3F8EC60094BC5F8E1
S2140093B0EC40186003F0A2FA4FF40053EB65730517
S2140093C044BF054BC3F8EC4070BD00BF00400044EE
S2140093D000600044F018002000500044082310B13C
S2140093E0024A13677047024AFBE700BF001002A854
S2140093F0002002A810B514460846012102F068F8BD
S2140094002046012102F064F8002010BDF8B54FF6A2
S214009410FF730D46818904469942866F03D0224B1E
S2140094201B6803B19847214F3B68B34235D0204BA9
S2140094301B6833B116B132688AB3B6683146204627
S2140094409847A36FF3B11A68022A1BD95A6A12F416
S2140094507F4FC2F3072005D01B6AD2B203FB02F28D
S214009460B2FBF0F002F084FB0726204601F086FAF5
S2140094706DB106200122A36F0E493B600E4B886734
S2140094801A70F8BDA4F10C00FEF796FDEAE7314627
S21400949004F1880002F0FCFBEBE70126E5E7164640
S2140094A0204631469847CCE7FC180020F8180020E4
S2140094B0E8180020006000A8EC18002008B5482234
S2140094C00021034804F0C7FCBDE8084003F0EABEEC
S2140094D0D01E00B02DE9F3410F46044600284FD0B9
S2140094E0042380F8CC30284B4FF6FF721B784FF0E1
S2140094F0FF388373642300F10C06C0E92B33C0E900
S2140095002D33C0F8A830A0F8BC30204BA0F83C2182
S21400951042740283C0F85081A0F8128030461A8048
S21400952002F0D0FF3046FFF7C9FF94F90E00FFF7B0
S214009530D9F96022164B04F1E401DA643046FFF7ED
S214009540F5FD41460546A26A3046FFF732FB0E237C
S2140095500022CDE9003340F202231046194602F0FD
S214009560C5FD01F0D3F83DB92046FEF7C9FF054614
S21400957017B108B92046B847284602B0BDE8F081C2
S21400958080F8C000FFDE00BF2C0000200419002079
S214009590004000A8034670B50C68B0F8C42001343B
S2140095A008BFD3F89C408D6808BF0C604C685A32E0
S2140095B0013408BFD3F8A84092B208BF4C606C1CB8
S2140095C000F1880033D1D3F8A450CC688D60661CB7
S2140095D031D1D3F8A0400E69CC60013604BFD3F871
S2140095E094600E614E69013604BFD3F898604E61F0
S2140095F08E69013604BFD3F8AC608E618E69F6B111
S214009600B24238BF32460E688A61C3E927644C68A6
S214009610C3F8A450C3E92A420A69C3F894204A69E9
S2140096200721C3F8982002F033FB002070BD954256
S21400963038BF1546C9E7944238BF1446CBE76422C4
S214009640E1E700004FF6FF72B0F83031934211D0D8
S214009650094A0A49526E100CC2F301120132B3FBDA
S214009660F2F30880064A074907481B0448660020AC
S2140096705366704703207047004001A80419002075
S214009680005001A8006001A80000FFFF2DE9F3418B
S21400969005460E461446FFF769FA002800F0A98032
S2140096A0554B4FF400612846D3F8CC8ED3F8A47EF1
S2140096B003F0ECFD38B14FF4007201214F4B084621
S2140096C01A67FEF763FC31462846FEF71BFE4A4B38
S2140096D00646C3F8CC8EC3F8A47E00286FD12B783C
S2140096E09F0601D4002C42D0C4F3400003F064F877
S2140096F0022314F4807F1BBF0021414A3F4A1367B0
S21400970017BF404A13675161136303F0AFF84FF475
S214009710806314F0040F14BF3B4A3C4A14F0400F19
S21400972053624FF00402354B20461A674FF0400351
S21400973014BF374A374AC2F88830FFF72FF8284652
S214009740FFF7D2FC38B14FF4807314F0010F14BF4A
S2140097502B4A2A4A1367A00602D52846FFF772FF4F
S214009760003C18BF01242B7864F345132B70284661
S21400977000F044F900B32846FFF7B6FCE0B14FF41A
S2140097800031284603F082FD002814BF022301237F
S214009790032201A9204800F023FC9DF804101F4A6C
S2140097A001F00703052B9DF8053018D109070AD4E8
S2140097B043F48073C2F8B030002000F06BFE3046F1
S2140097C002B0BDE8F08113F0040F0CBF9DF8063020
S2140097D04FF48073114A08BF43F48073EAE703F03E
S2140097E03001202902D113F0010FEEE79DF8063074
S2140097F0E0E70226E3E700BF001000B0002002A862
S214009800001002A800400044005001A8006001A813
S21400981000D000A800E000A808400044001E00B0E9
S21400982038B504461D46FFF731FF28B929462046BD
S214009830BDE8384002F070BF38BD00004FF6FF713B
S214009840084A10B513888B4209D00748074C1B04FA
S2140098504466A0F5805043660020118010BD0320AA
S214009860FCE700BF04190020006001A80000FFFF0D
S214009870484B2DE9F3411E6805460C46174606B1CF
S2140098800C3640F2022305F001022340134343D076
S214009890A30709D5404BD3F8CC3E03F0C003402BBA
S2140098A002BF02213D4B99604FF0000852B30023DF
S2140098B0002200210120CDE9008802F017FC0420D8
S2140098C001F0C6FA4FF0FF3001F0DEFE414670812F
